{
  "contractName": "EtherPage",
  "abi": [
    {
      "inputs": [],
      "stateMutability": "nonpayable",
      "type": "constructor"
    },
    {
      "inputs": [
        {
          "internalType": "uint16",
          "name": "_rows",
          "type": "uint16"
        },
        {
          "internalType": "uint16",
          "name": "_columns",
          "type": "uint16"
        },
        {
          "internalType": "uint16",
          "name": "_blocks",
          "type": "uint16"
        }
      ],
      "name": "addCanvas",
      "outputs": [],
      "stateMutability": "nonpayable",
      "type": "function"
    },
    {
      "inputs": [
        {
          "internalType": "uint256",
          "name": "_canvas_id",
          "type": "uint256"
        },
        {
          "internalType": "uint256",
          "name": "req_block_index",
          "type": "uint256"
        },
        {
          "internalType": "uint256",
          "name": "req_pixel_index",
          "type": "uint256"
        }
      ],
      "name": "ValidateIndex",
      "outputs": [
        {
          "internalType": "bool",
          "name": "",
          "type": "bool"
        }
      ],
      "stateMutability": "view",
      "type": "function",
      "constant": true
    },
    {
      "inputs": [
        {
          "internalType": "uint256",
          "name": "_canvas_id",
          "type": "uint256"
        },
        {
          "internalType": "uint16",
          "name": "block_index",
          "type": "uint16"
        },
        {
          "internalType": "uint16",
          "name": "pixel_index",
          "type": "uint16"
        }
      ],
      "name": "getPixel",
      "outputs": [
        {
          "components": [
            {
              "internalType": "uint16",
              "name": "price",
              "type": "uint16"
            },
            {
              "internalType": "bytes3",
              "name": "color",
              "type": "bytes3"
            }
          ],
          "internalType": "struct EtherPage.Pixel",
          "name": "_any",
          "type": "tuple"
        }
      ],
      "stateMutability": "view",
      "type": "function",
      "constant": true
    },
    {
      "inputs": [
        {
          "internalType": "uint256",
          "name": "_canvas_id",
          "type": "uint256"
        },
        {
          "internalType": "uint16",
          "name": "block_index",
          "type": "uint16"
        },
        {
          "internalType": "uint16",
          "name": "pixel_index",
          "type": "uint16"
        },
        {
          "internalType": "bytes3",
          "name": "color",
          "type": "bytes3"
        }
      ],
      "name": "ChangePixel",
      "outputs": [],
      "stateMutability": "nonpayable",
      "type": "function"
    }
  ],
  "bytecode": "0x608060405234801561001057600080fd5b50610953806100206000396000f3fe608060405234801561001057600080fd5b506004361061004c5760003560e01c80630c183b081461005157806353772b331461006d578063a626be5a1461009d578063b345ec2f146100cd575b600080fd5b61006b60048036038101906100669190610607565b6100e9565b005b61008760048036038101906100829190610708565b6101d2565b60405161009491906107b3565b60405180910390f35b6100b760048036038101906100b29190610656565b6102ba565b6040516100c491906107ce565b60405180910390f35b6100e760048036038101906100e291906106a5565b61047c565b005b600060018160018154018082558091505003906000526020600020905050600080600160008054905061011c9190610825565b81548110610153577f4e487b7100000000000000000000000000000000000000000000000000000000600052603260045260246000fd5b9060005260206000209063017dc66102019050838163017dc6600160026101000a81548161ffff021916908361ffff160217905550828163017dc6600160046101000a81548161ffff021916908361ffff160217905550818163017dc6600160006101000a81548161ffff021916908361ffff16021790555050505050565b600083600080549050116101e957600090506102b3565b6000808581548110610224577f4e487b7100000000000000000000000000000000000000000000000000000000600052603260045260246000fd5b9060005260206000209063017dc661020190508063017dc6600160009054906101000a900461ffff1661ffff168410156102ad578063017dc6600160049054906101000a900461ffff168163017dc6600160029054906101000a900461ffff1661028e91906107e9565b61ffff168310156102a35760019150506102b3565b60009150506102b3565b60009150505b9392505050565b6102c261058a565b6102d5848461ffff168461ffff166101d2565b156104345760008481548110610314577f4e487b7100000000000000000000000000000000000000000000000000000000600052603260045260246000fd5b9060005260206000209063017dc66102016000018361ffff166127108110610365577f4e487b7100000000000000000000000000000000000000000000000000000000600052603260045260246000fd5b6109c602016001018261ffff166109c481106103aa577f4e487b7100000000000000000000000000000000000000000000000000000000600052603260045260246000fd5b016040518060400160405290816000820160009054906101000a900461ffff1661ffff1661ffff1681526020016000820160029054906101000a900460e81b7cffffffffffffffffffffffffffffffffffffffffffffffffffffffffff19167cffffffffffffffffffffffffffffffffffffffffffffffffffffffffff1916815250509050610475565b6040518060400160405280600061ffff168152602001600060e81b7cffffffffffffffffffffffffffffffffffffffffffffffffffffffffff191681525090505b9392505050565b61048f848461ffff168461ffff166101d2565b156105845780600085815481106104cf577f4e487b7100000000000000000000000000000000000000000000000000000000600052603260045260246000fd5b9060005260206000209063017dc66102016000018461ffff166127108110610520577f4e487b7100000000000000000000000000000000000000000000000000000000600052603260045260246000fd5b6109c602016001018361ffff166109c48110610565577f4e487b7100000000000000000000000000000000000000000000000000000000600052603260045260246000fd5b0160000160026101000a81548162ffffff021916908360e81c02179055505b50505050565b6040518060400160405280600061ffff16815260200160007cffffffffffffffffffffffffffffffffffffffffffffffffffffffffff191681525090565b6000813590506105d7816108d8565b92915050565b6000813590506105ec816108ef565b92915050565b60008135905061060181610906565b92915050565b60008060006060848603121561061c57600080fd5b600061062a868287016105dd565b935050602061063b868287016105dd565b925050604061064c868287016105dd565b9150509250925092565b60008060006060848603121561066b57600080fd5b6000610679868287016105f2565b935050602061068a868287016105dd565b925050604061069b868287016105dd565b9150509250925092565b600080600080608085870312156106bb57600080fd5b60006106c9878288016105f2565b94505060206106da878288016105dd565b93505060406106eb878288016105dd565b92505060606106fc878288016105c8565b91505092959194509250565b60008060006060848603121561071d57600080fd5b600061072b868287016105f2565b935050602061073c868287016105f2565b925050604061074d868287016105f2565b9150509250925092565b61076081610859565b82525050565b61076f81610865565b82525050565b60408201600082015161078b60008501826107a4565b50602082015161079e6020850182610766565b50505050565b6107ad81610891565b82525050565b60006020820190506107c86000830184610757565b92915050565b60006040820190506107e36000830184610775565b92915050565b60006107f482610891565b91506107ff83610891565b92508161ffff048311821515161561081a576108196108a9565b5b828202905092915050565b60006108308261089f565b915061083b8361089f565b92508282101561084e5761084d6108a9565b5b828203905092915050565b60008115159050919050565b60007fffffff000000000000000000000000000000000000000000000000000000000082169050919050565b600061ffff82169050919050565b6000819050919050565b7f4e487b7100000000000000000000000000000000000000000000000000000000600052601160045260246000fd5b6108e181610865565b81146108ec57600080fd5b50565b6108f881610891565b811461090357600080fd5b50565b61090f8161089f565b811461091a57600080fd5b5056fea2646970667358221220937ed2d906a50be75f4d1c549e7c67050aa70f9d3b4381935a1bb9367cf103c764736f6c63430008040033",
  "immutableReferences": {},
  "source": "// SPDX-License-Identifier: MIT\npragma solidity ^0.8.4;\n\ncontract EtherPage {\n    \n    // Core structure\n    struct Pixel {\n        uint16 price;\n        bytes3 color;\n    }\n\n    struct Block {\n        address owner;\n        Pixel [2500] pixels;\n        uint16 rows;\n        uint16 columns;\n        uint16 blocks;\n    }\n    \n    struct Canvas {\n        Block [10000] blocks;\n        uint16 n_blocks;\n        uint16 rows;\n        uint16 columns;\n    }\n    \n    \n    \n    Canvas[] private canvases;\n    // Create object with given block divisions\n    constructor () {\n    }\n    \n    function addCanvas(uint16 _rows,uint16 _columns, uint16 _blocks) public {\n        canvases.push();\n        Canvas storage newCanvas = canvases[canvases.length - 1];\n        newCanvas.rows = _rows;\n        newCanvas.columns = _columns;\n        newCanvas.n_blocks = _blocks;\n        \n        // canvases.push(Canvas(_rows, _columns, _blocks));\n    }\n    \n    \n    \n    // function getCanvas(uint16 _canvas_index) public returns (Block[] memory canvas) {\n    //     Canvas storage cv = canvases[_canvas_index];\n    //     return cv.blocks[0:cv.n_blocks];\n    // }\n    \n    function ValidateIndex(uint _canvas_id, uint req_block_index,uint req_pixel_index) view public returns(bool) {\n        \n        if (canvases.length <= _canvas_id) return false;\n        \n        Canvas storage canvas = canvases[_canvas_id];\n        \n        if(req_block_index < canvas.n_blocks) {\n            if(req_pixel_index < canvas.rows * canvas.columns) {\n                return true;\n            }\n            else {\n                return false;\n            }\n        }\n        else {\n            return false;\n        }\n    }\n    \n    function getPixel (uint _canvas_id, uint16 block_index,uint16 pixel_index) view public returns (Pixel memory _any) {\n        if(ValidateIndex(_canvas_id, block_index, pixel_index)) {\n            return canvases[_canvas_id].blocks[block_index].pixels[pixel_index];\n        }\n        return Pixel(0, 0x000000);\n    }\n    \n    function ChangePixel (uint _canvas_id, uint16 block_index, uint16 pixel_index, bytes3 color) public {\n        if(ValidateIndex(_canvas_id, block_index, pixel_index)) {\n            canvases[_canvas_id].blocks[block_index].pixels[pixel_index].color = color;    \n        }\n    }\n    \n    // addBlock(uint16 _rows, uint16 _columns) {\n        \n    // }\n\n    // Events\n    // event PixelChange (uint16 x, uint16 y, bytes3 color);\n    \n    // Public getter function created on mentioning public keyword\n    // Canvas public canvas;\n    \n    \n    \n    // Color selected pixel\n    // function colorPixel(uint16 x, uint16 y, bytes3 color) public {\n    //     canvas.pixels[x][y] = color;\n    //     emit PixelChange(x, y, color);\n    // }\n    \n    \n    // function getCanvas() public view returns (Canvas memory) {\n    //     return canvas;\n    // }\n\n}",
  "sourcePath": "/Users/saiakash/dev/EveNFT-BackendSolidity/contracts/MillionEtherPage.sol",
  "compiler": {
    "name": "solc",
    "version": "0.8.4+commit.c7e474f2.Emscripten.clang"
  },
  "schemaVersion": "3.4.2",
  "updatedAt": "2021-08-08T20:15:08.691Z",
  "networkType": "ethereum",
  "devdoc": {
    "kind": "dev",
    "methods": {},
    "version": 1
  },
  "userdoc": {
    "kind": "user",
    "methods": {},
    "version": 1
  }
}