{
  "contractName": "MillionEtherPage",
  "abi": [
    {
      "constant": true,
      "inputs": [
        {
          "internalType": "uint256",
          "name": "",
          "type": "uint256"
        },
        {
          "internalType": "uint256",
          "name": "",
          "type": "uint256"
        }
      ],
      "name": "pixels",
      "outputs": [
        {
          "internalType": "bytes3",
          "name": "",
          "type": "bytes3"
        }
      ],
      "payable": false,
      "stateMutability": "view",
      "type": "function"
    },
    {
      "constant": false,
      "inputs": [
        {
          "internalType": "uint256",
          "name": "x",
          "type": "uint256"
        },
        {
          "internalType": "uint256",
          "name": "y",
          "type": "uint256"
        },
        {
          "internalType": "bytes3",
          "name": "color",
          "type": "bytes3"
        }
      ],
      "name": "colorPixel",
      "outputs": [],
      "payable": false,
      "stateMutability": "nonpayable",
      "type": "function"
    }
  ],
  "bytecode": "0x608060405234801561001057600080fd5b506101e5806100206000396000f3fe608060405234801561001057600080fd5b50600436106100365760003560e01c806323732d881461003b57806369d640fd1461009d575b600080fd5b61009b6004803603606081101561005157600080fd5b81019080803590602001909291908035906020019092919080357cffffffffffffffffffffffffffffffffffffffffffffffffffffffffff19169060200190929190505050610129565b005b6100d3600480360360408110156100b357600080fd5b810190808035906020019092919080359060200190929190505050610172565b60405180827cffffffffffffffffffffffffffffffffffffffffffffffffffffffffff19167cffffffffffffffffffffffffffffffffffffffffffffffffffffffffff1916815260200191505060405180910390f35b806000846103e8811061013857fe5b60640201836103e8811061014857fe5b600a91828204019190066003026101000a81548162ffffff021916908360e81c0217905550505050565b6000826103e8811061018057fe5b60640201816103e8811061019057fe5b600a9182820401919006600302915091509054906101000a900460e81b8156fea265627a7a723158204017175918d6afff5729f1bc4ce3f3a0e98ac5a4c71a2f851bcfc6042186038664736f6c63430005100032",
  "source": "// SPDX-License-Identifier: MIT\npragma solidity >=0.4.21 <0.9.0;\n\ncontract MillionEtherPage {\n    bytes3[1000][1000] public pixels;\n\n    function colorPixel(uint x, uint y, bytes3 color) public {\n        pixels[x][y] = color;\n    }    \n}",
  "sourcePath": "/home/keiser/canvas/contracts/Evenft.sol",
  "compiler": {
    "name": "solc",
    "version": "0.5.16+commit.9c3226ce.Emscripten.clang"
  },
  "schemaVersion": "3.4.2",
  "updatedAt": "2021-07-29T05:00:06.266Z",
  "devdoc": {
    "methods": {}
  },
  "userdoc": {
    "methods": {}
  }
}